:020000040800F2
:1000000088540020F501000895320008E53000080A
:1000100091320008C10700085D5E00080000000082
:100020000000000000000000000000008133000814
:100030001708000800000000E132000883330008C0
:100040000F0200080F0200080F0200080F0200084C
:100050000F0200080F0200080F0200080F0200083C
:100060000F0200080F0200080F0200080F0200082C
:100070000F0200080F0200080F0200080F0200081C
:100080000F0200080F0200080F0200080F0200080C
:100090000F0200080F0200080F0200080F020008FC
:1000A0000F0200080F0200080F0200080F020008EC
:1000B0000F0200080F0200080F0200080F020008DC
:1000C0000F0200080F0200080F0200080F020008CC
:1000D0000F0200080F0200080F0200080F020008BC
:1000E0000F0200080F0200080F02000800000000C5
:1000F0000000000000000000000000000000000000
:1001000000000000000000000F0200080F020008BD
:100110000F0200080F0200080F0200080F0200087B
:100120000F0200080F0200080F0200080F0200086B
:100130000F0200080F0200080F0200080F0200085B
:100140000F0200080F0200080F020008D132000859
:1001500000F002F800F03EF80AA090E8000C82449B
:100160008344AAF10107DA4501D100F033F8AFF278
:10017000090EBAE80F0013F0010F18BFFB1A43F085
:10018000010318476C8700008C870000103A24BFD9
:1001900078C878C1FAD8520724BF30C830C144BFEC
:1001A00004680C607047000000230024002500262E
:1001B000103A28BF78C1FBD8520728BF30C148BFCA
:1001C0000B6070471FB59DE8030000F01FFA1FBDCC
:1001D00010B510BD00F076FA1146FFF7F3FF07F0F7
:1001E000E3FC00F094FA03B4FFF7F2FF03BC00F065
:1001F000C1FA00000948804709480047FEE7FEE7CA
:10020000FEE7FEE7FEE7FEE7FEE7FEE7FEE7FEE7C6
:1002100004480549054A064B70470000553400085C
:1002200051010008881400208854002088340020E0
:100230008834002070B5064600F0CCF9056806F158
:100240000B0020F00704B4429CBF002070BD2B4679
:100250006A68BAB11068A04210D304F1080188425C
:100260003CBF5068586007D351681019416011684D
:10027000091B016058601460101D70BD1346526860
:10028000002AE7D12146284600F0ACF90028DED14B
:1002900070BD70B50446051F00F09CF90068002C85
:1002A00014BF446870BD002C18BFAC423CBF204650
:1002B0006468F8D301680A18AA4218BF456003D1E0
:1002C0002A6805461144016028684119A1421CBFF3
:1002D0006C6070BD6168696021680844286070BD09
:1002E00053EA020C00F069802DE9F04B4FF0000654
:1002F000002B1FBFB3FA83F503FA05F424FA05F6C1
:100300005E4012BF1643B2FA82F502FA05F4C5F157
:1003100020051EBF22FA05FC44EA0C04203556EAEB
:10032000044C4FEA144418BF641C4FF000084FF00F
:100330000009904271EB030C39D3002919BFB1FABF
:1003400081F701FA07F6B0FA80F700FA07F6C7F16D
:1003500020071EBF20FA07FC46EA0C062037B6FB32
:10036000F4FCA7EB0507103F07F01F0BCBF12006AD
:100370000CFA0BFB2CFA06F644BFB3460026202FDE
:10038000A4BF5E464FF0000B5BEA060C08BF4FF0BF
:10039000010B19EB0B09ABFB027C48EB0608C01BF9
:1003A00006FB02CC0BFB03CC71EB0C01C1E70B4647
:1003B000024641464846BDE8F08B13B54FF00000B9
:1003C0004FF00001AFF30080BDE81C407047B2F170
:1003D00020030AD5C2F1200320FA02F001FA03F348
:1003E00021FA02F140EA0300704721FA03F04FF0CE
:1003F0000001704740EA010310B59B070FD1042AA2
:100400000DD310C808C9121F9C42F8D020BA19BADF
:10041000884201D9012010BD4FF0FF3010BD1AB144
:10042000D30703D0521C07E0002010BD10F8013B99
:1004300011F8014B1B1B07D110F8013B11F8014BC0
:100440001B1B01D1921EF1D1184610BD032A40F2A8
:10045000308010F0030C00F0158011F8013BBCF166
:10046000020F624498BF11F801CB00F8013B38BF7E
:1004700011F8013BA2F1040298BF00F801CB38BF8C
:1004800000F8013B11F0030300F02580083AC0F0AA
:10049000088051F8043B083A51F804CBA0E8081052
:1004A000F5E7121D5CBF51F8043B40F8043BAFF385
:1004B0000080D20724BF11F8013B11F801CB48BFDF
:1004C00011F8012B24BF00F8013B00F801CB48BF15
:1004D00000F8012B704710B5203AC0F00B80B1E84E
:1004E0001850203AA0E81850B1E81850A0E8185069
:1004F000BFF4F5AF5FEA027C24BFB1E81850A0E872
:10050000185044BF18C918C0BDE810405FEA827C8B
:1005100024BF51F8043B40F8043B08BF7047D207A2
:1005200028BF31F8023B48BF11F8012B28BF20F843
:10053000023B48BF00F8012B70474FF0000204292E
:10054000C0F0128010F0030C00F01B80CCF1040C02
:10055000BCF1020F18BF00F8012BA8BF20F8022B36
:10056000A1EB0C0100F00DB85FEAC17C24BF00F8DC
:10057000012B00F8012B48BF00F8012B70474FF00A
:10058000000200B5134694469646203922BFA0E8E3
:100590000C50A0E80C50B1F12001BFF4F7AF0907EF
:1005A00028BFA0E80C5048BF0CC05DF804EB8900E0
:1005B00028BF40F8042B08BF704748BF20F8022B23
:1005C00011F0804F18BF00F8012B7047704770473B
:1005D00070470000004870472C1400207047704797
:1005E0007047704738B504460A4600206946AFF3A5
:1005F0000080002808BF38BD02460099204600F060
:100600003FF8012038BD012000F054B8F8B5AFF331
:100610000080054600200C46102000BF0646A819A1
:10062000A0420DD9324669460020AFF30080070092
:1006300008BF00F03FF80098A04218BF0546C41953
:10064000FFF7C8FF05600746F01D20F007004619B8
:10065000284600F00AF8B44208BFF8BDA21B314694
:100660003868BDE8F84000F00BB800210160C0E92F
:100670000110704710207047004870472414002074
:10068000034640688C46002818BF88423CBF03469A
:100690004068F8D318681844884207D00CF103006A
:1006A00020F00700001D411A521A0146081D0A6079
:1006B000FFF7EFBD10B500F035F8BDE8104000F0D1
:1006C0002CB870477546FFF7D7FFAE460500694660
:1006D000534620F00700854618B020B5FFF798FD77
:1006E000BDE820404FF000064FF000074FF0000833
:1006F0004FF0000B21F00701AC46ACE8C009ACE8B4
:10070000C009ACE8C009ACE8C0098D467047044692
:10071000AFF300802046FFF766FD002801D000F00F
:1007200029B8704710B5012805D0002103A000F0BA
:1007300027F8012010BD09A1F8E7000053494752EE
:10074000544D454D3A204F7574206F6620686561A1
:1007500070206D656D6F7279000000003A20486569
:100760006170206D656D6F727920636F7272757044
:100770007465640001491820ABBEFEE72600020044
:1007800070B505460C460A2000E06D1C00F011F81B
:1007900035B128780028F8D102E0641C00F009F88F
:1007A00014B120780028F8D1BDE870400A20AFF3DA
:1007B000008008B569468DF800000320ABBE08BD77
:1007C00000BFFEE70146002205E0002301F55F704F
:1007D00040F82230521C0F2AF7D3002204E00023F5
:1007E00001F58E708354521CB2F5007FF7D30020C0
:1007F00008704870012088700020C1F8B8030123F8
:100800000B7640238B7100234B7681F81C33012338
:1008100081F81D337047704730B504460D460022FD
:100820002946204600F002F830BD0000F0B503462E
:10083000012500241148407A01281CDC00200F4EBD
:10084000767A0E4FB8553846467A001D40F8263065
:10085000001F467A083082553E46707A461C7E72EA
:10086000044604F1300008703A2048702F20887048
:100870000020C87000252846F0BD00001814002094
:100880000021074AD1610749096941F00401054A7D
:1008900011611146096941F0400111617047000082
:1008A000E0130020002002400021074AD1610749DF
:1008B000096941F00201054A11611146486109695F
:1008C00041F0400111617047E01300200020024018
:1008D0000022054BDA61054A126942F00102034B1E
:1008E0001A61018070470000E013002000200240E0
:1008F00000201E49C96801F0100139B11C49C969BD
:1009000041F002011A4AD16140F010001749C9684C
:1009100001F0040139B11649C96941F00101144AD5
:10092000D16140F004001149C96901F0010169B1C8
:100930000F49C96941F004010D4AD16100BF0B495B
:10094000C96921F00101094AD16100BF00BF40F22D
:100950000111884206D10549C96921F00101034A04
:10096000D16101E00149C86000BF7047002002402A
:10097000E013002070B5044600F0B6FA054609E021
:10098000601C38B124B100F0AFFA401BA04201D97D
:10099000032070BD1248C06800F001000028EFD1AC
:1009A0000F48C06800F0200020B100BF20200C4993
:1009B000C86000BF0A48C06800F0100048B9084885
:1009C000C06900F0010020B90548C06800F00400CB
:1009D00018B1FFF78DFF0120DBE70020D9E7000009
:1009E0000020024070B5044600F07EFA0646254617
:1009F000681C10B104480078054400BF00F074FA88
:100A0000801BA842FAD370BD280000202DE9F041D8
:100A100004460E460127002500BF2648007E012817
:100A200002D10220BDE8F08101202249087600BFF2
:100A30002068022813D14CF25030FFF79BFF90BB87
:100A40000120FFF71DFF4CF25030FFF793FF0746E0
:100A50001948006920F004001749086123E04CF2AE
:100A60005030FFF787FFF0B94FF0FF303060A568D6
:100A700012E02846FFF718FF4CF25030FFF77AFFDC
:100A800007460D48006920F002000B4908610FB1CC
:100A9000356007E005F50065D4E9021001EBC020E0
:100AA000A842E6D800BF00BF00200249087600BF78
:100AB0003846B7E7E01300200020024003480069F1
:100AC00040F080000149086100207047002002408A
:100AD0002DE9FE4F05468B46174698460126002411
:100AE0000020029000BF2448007E012802D102208D
:100AF000BDE8FE8F01202049087600BF4CF250303F
:100B0000FFF738FF064686BB012D02D10120029077
:100B100006E0022D02D10220029001E004200290A2
:100B200000241EE02201B946C24648465146FFF75E
:100B30004EFC80B20190022000FB04B000900199AD
:100B4000FFF7C6FE4CF25030FFF714FF06460B4885
:100B5000006920F001000949086106B104E0601C49
:100B6000C4B202988442DDDB00BF00BF002002490E
:100B7000087600BF3046BBE7E013002000200240AB
:100B800000200849096901F0800151B10649054A70
:100B90005160064951601146096901F0800101B1B7
:100BA000012070470020024023016745AB89EFCD4B
:100BB0002DE9F8470346002400200025844600273D
:100BC00000226EE14FF0010808FA02F4D1F800802B
:100BD00008EA0400A0427DD1DFF8D0A2D1F8048059
:100BE000A8EB0A09D0453AD014DCB8F1030F50D075
:100BF00009DCB8F1000F31D0B8F1010F1CD0B8F109
:100C0000020F49D120E0B8F1110F18D0B8F1120F3E
:100C100042D11EE0B9F5881F25D006DCB9F5803F2A
:100C200020D0B9F5801F37D11AE0B9F5001F18D0D0
:100C3000B9F5041F30D117E0D1F80CC02DE0D1F880
:100C40000C8008F1040C28E0D1F80C8008F1080CA5
:100C500023E0D1F80C8008F10C0C1EE000BF00BFAF
:100C600000BF00BF00BF00BFD1F80880B8F1000F7F
:100C700002D14FF0040C0BE0D1F80880B8F1010F5D
:100C800003D14FF0080C1C6102E04FF0080C5C61CE
:100C900003E04FF0000C00E000BF00BFFF2801D8C8
:100CA000984601E003F104084646FF2802D84FEABF
:100CB000820803E0A2F108084FEA88084746D6F800
:100CC00000804FF00F0909FA07F928EA09080CFA21
:100CD00007F900E088E048EA0908C6F80080D1F882
:100CE000048008F08058B8F1805F7DD100BFDFF844
:100CF000C081D8F8188048F00108DFF8B491C9F82D
:100D00001880C846D8F8188008F00108CDF800808F
:100D100000BF00BF4FEAB9384FEA920958F829508E
:100D20004FEA82784FEA18794FF00F0808FA09F86D
:100D300025EA0805DFF87C81434502D14FF0000821
:100D400016E0DFF87481434502D14FF001080FE04F
:100D5000DFF86881434502D14FF0020808E0DFF870
:100D60006081434502D14FF0030801E04FF00408D1
:100D70004FEA82794FEA197908FA09F848EA050535
:100D8000DFF840814FEA920948F82950D1F80480F1
:100D900008F48038B8F5803F0AD1DFF82C81D8F804
:100DA000008048EA0008DFF82091C9F8008009E0D7
:100DB000DFF81481D8F8008028EA0008DFF80891ED
:100DC000C9F80080D1F8048008F40038B8F5003F75
:100DD00010D1DFF8F48008F10408D8F8008048EA60
:100DE0000008DFF8E49000E05AE009F10409C9F8CE
:100DF00000800DE0DFF8D08008F10408D8F800800A
:100E000028EA0008DFF8C09009F10409C9F8008059
:100E1000D1F8048008F48018B8F5801F0ED1DFF8EF
:100E2000A88008F10808D8F8008048EA0008DFF830
:100E3000989009F10809C9F800800DE0DFF8888072
:100E400008F10808D8F8008028EA0008DFF8789050
:100E500009F10809C9F80080D1F8048008F40018E5
:100E6000B8F5001F0ED1DFF8608008F10C08D8F843
:100E7000008048EA0008DFF8509009F10C09C9F831
:100E800000800DE0DFF8408008F10C08D8F8008001
:100E900028EA0008DFF8309009F10C09C9F8008051
:100EA000521C102AFFF48EAEBDE8F8870000111026
:100EB0000010024000080140000C014000100140F9
:100EC00000140140080001400004014002469368FC
:100ED0000B400BB1012000E0002070470AB1016116
:100EE00001E00B040361704701480068704700008F
:100EF0002000002010B50446D4F8800202F044FE21
:100F000010BD10B50446D4F8800202F054FE10BDA6
:100F100010B50446206804F03FFC10BD10B504462F
:100F2000206804F03FFC10BD024601EB810302F192
:100F3000240000EBC30090F824007047024601EB48
:100F4000810302F1240000EBC3004069704770B5D3
:100F500004460D4600BF94F87C02012801D102200E
:100F600070BD012084F87C0200BF2946206804F08F
:100F700029FC00BF002084F87C0200BF00BFEFE71F
:100F80002DE9FE4F04460D4616461F46DDE90D9A33
:100F9000DDF830804FF0000B00BF94F87C02012890
:100FA00002D10220BDE8FE8F012084F87C0200BF40
:100FB00005EB850104F1240000F8317005EB850193
:100FC00000EBC100A0F808A005EB850104F12400A6
:100FD00000EBC100457005EB850104F1240000EB36
:100FE000C10080F8079006F07F0105EB850204F14F
:100FF000240000EBC2008170C6F3C01105EB85022E
:1010000004F1240000EBC200C17005EB850104F17E
:10101000240000EBC10080F804808DE800073B4607
:1010200032462946206804F08AFC834600BF00202F
:1010300084F87C0200BF5846B4E770472DE9F05FA2
:1010400004460D4616461F46DDE90BB9DDF834A00F
:10105000DDF8288005EB850104F1240000EBC100D8
:10106000C67005EB850104F1240000EBC100C771D7
:10107000B8F1000F08D1032105EB850204F124002B
:1010800000EBC200817207E0022105EB850204F14A
:10109000240000EBC200817237B1012F7DD0022FF6
:1010A0003DD0032F3AD182E0B8F1010F36D1AEBB6B
:1010B000B9F1000F07D1012105EB850204F12400ED
:1010C00000EBC200417605EB850104F1240000EB42
:1010D000C100407E40B9002105EB850204F12400E7
:1010E00000EBC200817207E0022105EB850204F1EA
:1010F000240000EBC200817205EB850104F124009D
:1011000000EBC10090F82400022807D005EB850110
:1011100004F1240000EBC10080F805A085E05EBB6F
:1011200005EB850104F1240000EBC100407E40B9CD
:10113000002105EB850204F1240000EBC20081725E
:1011400007E0022105EB850204F1240000EBC20058
:10115000817205EB850104F1240000EBC10090F8D9
:101160002400022822D005EB850104F1240000EBC5
:10117000C10080F805A019E005EB850104F1240009
:1011800000EBC100007E48B9002105EB850204F1A7
:10119000240000EBC200817208E03DE0022105EB73
:1011A000850204F1240000EBC20081723DE0CEB95B
:1011B00005EB850104F1240000EBC100407E40B93D
:1011C000002105EB850204F1240000EBC2008172CE
:1011D00021E0022105EB850204F1240000EBC200AE
:1011E000817218E005EB850104F1240000EBC100D9
:1011F000007E40B9002105EB850204F1240000EBDC
:10120000C200817207E0022105EB850204F124008F
:1012100000EBC200817208E0002105EB850204F1B9
:10122000240000EBC200817200BF00BF05EB850106
:1012300004F1240000EBC100C0F80CB005EB8501FF
:1012400004F1240000EBC100C0F81090002105EB70
:10125000850204F1240000EBC20080F8241005EBA5
:10126000850204F1240000EBC200416105EB850119
:1012700004F1240000EBC1004570002105EB85025C
:1012800004F1240000EBC20080F8251005EB850373
:1012900004F1240202EBC301206804F009FCBDE85C
:1012A000F09F2DE9F04104462668002500272068BC
:1012B00004F083FA012871D1206804F014FD08B904
:1012C000BDE8F081206804F00EFD00F40010B0F5D8
:1012D000001F03D14FF4001021684861206804F01A
:1012E00002FD00F48010B0F5801F03D14FF4801090
:1012F00021684861206804F0F6FC00F08060B0F1DD
:10130000806F03D14FF0806021684861206804F04D
:10131000EAFC00F00200022801D12168486120683F
:1013200004F0E1FC00F00050B0F1005F10D1D6F8FD
:10133000400420F02E00C6F840042046FFF7E1FDEF
:101340000121206804F0B0FC4FF000502168486192
:10135000206804F0C8FC00F08070B0F1807F02D1FA
:10136000204601F0DAFD206804F0BDFC00F0080022
:10137000082805D1204600F0A1F80820216848611E
:10138000206804F0B0FC00F00070B0F1007F23D1C1
:10139000206804F087FB0746002516E032E00120B4
:1013A000A840384080B106F5A06000EB4510006809
:1013B00000F4004020B1E9B2204601F0D6F803E085
:1013C000E9B2204601F031FB6D1CA068A842E6D8C6
:1013D0004FF0007021684861206804F084FC00F040
:1013E000100010280ED12068806920F010002168BC
:1013F0008861204601F0F2FD2068806940F010000D
:101400002168886100BF5BE710B586B0044614B957
:10141000012006B010BD94F87D0228B9002084F8A0
:101420007C02204600F024F8032084F87D02206826
:1014300004F052F9142204F110016846FFF74BF84A
:1014400094E80F0004F014F90121206804F07FFCF7
:10145000142204F110016846FFF73DF894E80F00EC
:1014600004F0BEFB012084F87D020020D1E70000DB
:1014700038B504462068B0F1A04F15D100BF0B4825
:10148000406940F48050094948610846406900F4C9
:101490008050009000BF00BF00221146432000F0A2
:1014A000F4F8432000F0E4F838BD000000100240DA
:1014B00010B50446206804F030FC10BD10B5044699
:1014C000D4F8800202F0EAFB10BD10B5044600BF5C
:1014D00094F87C02012801D1022010BD012084F87B
:1014E0007C0200BF206804F022F90121206804F08A
:1014F000FAF800BF002084F87C0200BF00BFECE7D0
:1015000010B5044600BF94F87C02012801D10220E6
:1015100010BD012084F87C0200BF206804F02FFC7D
:1015200000BF002084F87C0200BF00BFF0E700008D
:101530000348006803490978084401490860704776
:10154000200000202800002010B50848006840F066
:10155000100006490860032000F0D6F8002000F0D3
:1015600007F800F02BF8002010BD0000002002401A
:1015700070B504460E4800784FF47A71B1FBF0F074
:101580000C490968B1FBF0F5284600F0D0FF08B11E
:10159000012070BD102C07D200222146501E00F001
:1015A00074F80548046001E00120F2E70020F0E74C
:1015B000280000202C0000202400002008B500BFD7
:1015C0002948806940F00100274988610846806900
:1015D00000F00100009000BF00BF00BF0846C069D6
:1015E00040F08050C8610846C06900F0805000900B
:1015F00000BF00BF032000F087F8002211466FF003
:101600000B0000F042F8002211466FF00A0000F0D3
:101610003CF8002211466FF0090000F036F8002275
:101620001146501F00F031F800221146101F00F043
:101630002CF800221146901E00F027F800221146D7
:10164000501E00F022F800BF0849486820F0E06012
:1016500040F08060486000BF00BF486820F0E06054
:1016600000BF486000BF08BD0010024000000140FC
:1016700000BF00F01F02012191404209920002F1D7
:10168000E022C2F8001100BF70472DE9F05F8046EC
:101690000D461646002701F0FFFD074639462A464B
:1016A000334601F00700C0F1070ABAF1040F02D96E
:1016B0004FF0040A01E0C0F1070AD14600F1040A24
:1016C000BAF1070F02D24FF0000A01E0A0F1030ABD
:1016D000D4464FF0010A0AFA09FAAAF1010A0AEA05
:1016E000020A0AFA0CFA4FF0010B0BFA0CFBABF1F1
:1016F000010B0BEA030B4AEA0B042146404601F0BA
:10170000D3FDBDE8F09F000000BF00F00702064BCC
:1017100019684FF6FF031940044B0B4343EA0221BB
:10172000014B196000BF70470CED00E00000FA05A6
:10173000012001490862704700000E422DE9F04F78
:1017400089B080467DA1D1E90023D1E90201CDE92C
:101750000523CDE907017DA3D3E90020D3E90213D6
:1017600002AC0BC401924FF0000900250026AB46E5
:10177000AA460027002400200090B8F1040F59D099
:1017800006DCB8F1010F76D0B8F1020F74D1C3E0D6
:10179000B8F1080F72D0B8F1100FF7D16F48446854
:1017A000006800F08070002843D005A8C4F383418E
:1017B000465C04F4803058B36848C06A00F00F00FB
:1017C00001A911F800906548C06A00F48030A0B10A
:1017D0006248C06AC0F30310471C6048C06AC0F387
:1017E000032000F1020B5E48B0FBF7F000FB0BF0AA
:1017F000B0FBF9F000FB06F504E05948B0FBF9F046
:1018000000FB06F59DF82100B04204D16D0802E00E
:10181000544806FB00F55148406800F48000B0F5DC
:10182000800F01D1009504E068000321B0FBF1F0C6
:1018300000907EE04948C06A00F4003018B900F01A
:1018400083FA009016E04548006800F0805088B1A7
:101850004248C06AC0F30310471C4048C06AC0F346
:10186000033000F1020A3E48B0FBF7F000FB0AF03B
:10187000400000905DE022E05AE0FFE73748C06A90
:1018800000F4802018B900F05FFA009016E03348A9
:10189000006800F0805088B13048C06AC0F303107F
:1018A000471C2E48C06AC0F3033000F1020A2C48DE
:1018B000B0FBF7F000FB0AF04000009039E0274849
:1018C000046A04F44070B0F5807F06D104F0020091
:1018D00018B14FF4004000901DE004F44070B0F5E2
:1018E000007F08D11D48406A00F0020018B149F697
:1018F000404000900FE004F44070B0F5407F08D104
:101900001648006800F4003018B14FF224400090EF
:1019100001E0002000900CE000F006FA0F49496851
:10192000C1F38131491C4900B0FBF1F0009000E0A7
:1019300000BF00BF009809B0BDE8F08F00000405AB
:101940000607080900000000000D00000102030462
:1019500005060708090A0B0C0D0E0F1000100240B7
:1019600000127A0000093D002DE9F84304460026E4
:1019700000250027207800F0010000286ED0A8463E
:101980007948C06900F0805078B900BF7648C069D6
:1019900040F080507449C8610846C06900F080502A
:1019A000009000BF00BF4FF001087048006800F4CD
:1019B0008070B8B96D48006840F480706B49086069
:1019C000FFF792FA064607E0FFF78EFA801B6428BD
:1019D00002D90320BDE8F8836448006800F48070F1
:1019E0000028F1D06048006A00F440752DB3A0884B
:1019F00000F44070A84220D05B48006A20F4407593
:101A000001205B490860002008605748056205F026
:101A1000010090B1FFF768FA064608E0FFF764FAA4
:101A2000801B41F28831884201D90320D2E74E4819
:101A3000006A00F002000028F0D04B48006A20F451
:101A400040706168084348490862B8F1010F04D149
:101A50000846C06920F08050C86100BF207800F0BF
:101A60000200022807D14048406820F44040A168A5
:101A700008433D494860207800F00400042807D15D
:101A80003948C06A20F40030E16808433649C8622A
:101A9000207800F00800082807D13348C06A20F4F5
:101AA0008020216908433049C8622F48C06A00F489
:101AB000003020B92C48C06A00F4802000B1012712
:101AC000012F41D12848006800F0805090BB264883
:101AD000006800F0806040B12348C06A00F0F00167
:101AE000A069814201D0012074E71F48C06A20F03C
:101AF000F000A16908431C49C8620846C06A20F486
:101B00007040616908431849C86201201949086793
:101B1000FFF7EAF9064606E0FFF7E6F9801B6428BE
:101B200001D9032056E71048006800F00050002853
:101B3000F2D009E0FFE70C48C06A00F47040616928
:101B4000884201D0012045E7207800F010001028DD
:101B500007D10548406820F48000E1690843024944
:101B60004860002036E7000000100240007000408E
:101B7000400442420000424270B504460D46002631
:101B80006248006800F00700A8420ED25F48006873
:101B900020F0070028435D4908600846006800F00F
:101BA0000700A84201D0012070BD207800F002009B
:101BB000022807D15648406820F0F000A168084389
:101BC00053494860207800F0010000285DD060682B
:101BD000012806D14E48006800F4003090B9012079
:101BE000E2E76068022806D14948006800F000700A
:101BF00040B90120D8E74648006800F0020008B963
:101C00000120D1E74248406820F0030061680843A2
:101C10003F494860FFF768F906466068012810D11F
:101C200008E0FFF761F9801B41F28831884201D951
:101C30000320B9E73648406800F00C000428F0D1D2
:101C400023E06068022810D108E0FFF74DF9801BFF
:101C500041F28831884201D90320A5E72C48406829
:101C600000F00C000828F0D10FE008E0FFF73CF985
:101C7000801B41F28831884201D9032094E724482F
:101C8000406800F00C000028F0D12048006800F007
:101C90000700A8420ED91D48006820F0070028431D
:101CA0001A4908600846006800F00700A84201D001
:101CB000012079E7207800F00400042807D11448B7
:101CC000406820F4E060E1680843114948602078EA
:101CD00000F00800082808D10D48406820F4605042
:101CE000216940EAC1000A49486000F02DF808491E
:101CF0004968C1F30311074A515CC84006490860AE
:101D00000020FFF735FC00204EE7000000200240D5
:101D100000100240148300082C00002001480068D5
:101D2000704700002C00002000B5FFF7F7FF0449C2
:101D30004968C1F3C221034A515CC84000BD00009C
:101D400000100240248300082DE9F04F8BB03CA224
:101D5000D2E901311068D268CDE908310A920790C2
:101D60003BA3D3E90020D3E9021304AC0BC40392D4
:101D70004FF00009CB46CA46002400200290019093
:101D800000903748D0F8049009F00C0000284FD09C
:101D9000042802D008284AD102E0324802904AE0E2
:101DA00007A8C9F38341445C09F48030C0B32C48D0
:101DB000C06A00F00F0003A911F800B02848C06AFB
:101DC00000F4803008B32648C06AC0F30310401CFA
:101DD00001902348C06AC0F30320801C0090019842
:101DE000A0FB0B5006461F490098A1FB00210023D1
:101DF000A2FB047C01FB04C102FB03112A4633460B
:101E00003846FEF76DFA824603E016486043B0FBA1
:101E1000FBFA9DF82900A04206D14FEA5A0A03E0D6
:101E2000FFE7114804FB00FACDF808A003E000BF6B
:101E30000C48029000BF00BF02980BB0BDE8F08FC5
:101E4000000004050607080900000000000D00005E
:101E50000102030405060708090A0B0C0D0E0F10FA
:101E60000010024000127A0000093D00F8B5044657
:101E70000025207800F00100002878D0FD48406857
:101E800000F00C0004280CD0FA48406800F00C0068
:101E9000082811D1F748406800F48030B0F5803F41
:101EA0000AD1F448006800F4003000285FD0A06830
:101EB00000285CD10120F8BD00BFA068B0F5803FCC
:101EC00006D1EC48006840F48030EA49086028E018
:101ED000A06858B9E748006820F48030E5490860F8
:101EE0000846006820F4802008601AE0A068B0F579
:101EF000A02F0BD1DF48006840F48020DD49086046
:101F00000846006840F4803008600AE0D94800685C
:101F100020F48030D74908600846006820F480200B
:101F2000086000BFA06888B1FEF7DEFF054606E046
:101F3000FEF7DAFF401B642801D90320BBE7CD4838
:101F4000006800F400300028F2D010E0FEF7CCFF6B
:101F5000054606E0FEF7C8FF401B642801D90320B0
:101F6000A9E7C448006800F400300028F2D12078C6
:101F700000F00200022857D1BE48406800F00C0073
:101F800050B1BC48406800F00C00082818D1B9488E
:101F9000406800F4803098B9B648006800F002004C
:101FA00020B16069012801D0012084E7B1480068B0
:101FB00020F0F800A16940EAC100AE49086033E0B2
:101FC0006069E8B10120AC490860FEF78DFF054665
:101FD00006E0FEF789FF401B022801D903206AE7CB
:101FE000A448006800F002000028F2D0A148006870
:101FF00020F0F800A16940EAC1009E49086013E0A2
:1020000000209D490860FEF76FFF054606E0FEF7D9
:102010006BFF401B022801D903204CE7954800685C
:1020200000F002000028F2D1207800F00800082813
:102030002DD1E069B8B1012090490860FEF754FF46
:10204000054606E0FEF750FF401B022801D9032099
:1020500031E78848406A00F002000028F2D00120F1
:1020600001F040F913E0002084490860FEF73CFFCE
:10207000054606E0FEF738FF401B022801D9032081
:1020800019E77C48406A00F002000028F2D120786D
:1020900000F00400042873D100267648C06900F0DF
:1020A000805070B900BF7348C06940F080507149DA
:1020B000C8610846C06900F08050009000BF00BFB2
:1020C00001266F48006800F48070B0B96C48006861
:1020D00040F480706A490860FEF706FF054606E096
:1020E000FEF702FF401B642801D90320E3E66448A1
:1020F000006800F480700028F2D000BF2069012839
:1021000006D15C48006A40F001005A49086227E0A5
:10211000206958B95748006A20F001005549086203
:102120000846006A20F00400086219E020690528CA
:102130000BD15048006A40F004004E49086208463E
:10214000006A40F0010008620AE04A48006A20F094
:102150000100484908620846006A20F0040008624D
:1021600000BF2069A0B1FEF7BFFE054609E0FEF7FB
:10217000BBFE401B41F28831884202D903209AE617
:1021800022E03C48006A00F002000028EFD012E094
:10219000FEF7AAFE054608E0FEF7A6FE401B41F248
:1021A0008831884201D9032085E63248006A00F070
:1021B00002000028F0D1012E05D12E48C06920F080
:1021C00080502C49C86100BFE06AA0B3294840682C
:1021D00000F48030B0F5803F0ED12648406800F012
:1021E0000C00082808D12348C06A00F48030B0F5FC
:1021F000803F01D101205EE6E06A022850D11D48EF
:10220000006800F0805040B11A48C06A00F0F00148
:10221000606B814201D001204DE60020164988669E
:10222000FEF762FE054607E0FEF75EFE401B6428EF
:1022300002D903203FE64DE00E48006800F0006040
:102240000028F1D10B48C06A20F0F000616B084310
:102250000849C8620846C06A20F47060216B0843D0
:102260000449C862012004498866FEF73DFE054620
:102270000FE0000000100240000042428004424291
:1022800000700040FEF730FE401B642801D9032097
:1022900011E64648006800F000600028F2D019E01E
:1022A0004248C06A20F480304049C862002040495A
:1022B0008866FEF719FE054606E0FEF715FE401B90
:1022C000642801D90320F6E53848006800F0006072
:1022D0000028F2D1206AE0B33448406800F00C00D6
:1022E00008285ED0206A022846D1002030490866BE
:1022F000FEF7FAFD054606E0FEF7F6FD401B022854
:1023000001D90320D7E52948006800F000700028B3
:10231000F2D1606AB0F5803F0DD12448C06A61688F
:1023200008432249C8620846C06A20F00F00E168ED
:1023300008431E49C862D4E9090108431B4949689A
:1023400021F47411084319494860012018490866AE
:1023500000E028E0FEF7C8FD054606E0FEF7C4FDF4
:10236000401B022801D90320A5E51048006800F0B1
:1023700000700028F2D016E000200D490866FEF734
:10238000B3FD054606E0FEF7AFFD401B022801D96C
:10239000032090E50548006800F000700028F2D1A5
:1023A00001E0012087E5002085E5000000100240E3
:1023B0000000424270B5044600250CB9012070BDF2
:1023C000607C20B900202074204600F05BF80220D9
:1023D0006074204600F076F818B104206074012083
:1023E000EDE7204600F092FF18B104206074012050
:1023F000E5E72068406820F0070021684860A06891
:1024000028B11F48006820F001001D4908601C48E1
:10241000001F006820F46070A16808431849091F74
:1024200008606068401C08B1656809E00120FFF79A
:1024300085F905461DB9042060740120BFE76D1EB3
:102440002068806820F00F0040EA1540216888600D
:102450002068C06865F30F002168C860204600F05E
:1024600072FF18B1042060740120A8E70021E17315
:1024700001216173A1730120607400209FE70000B7
:10248000306C004038B504460B492068884212D1B0
:10249000FFF74EF900BF0948C06940F000600749E6
:1024A000C8610846C06900F00060009000BF00BF2E
:1024B00001200349086038BD002800400010024098
:1024C0003C04424270B5044600250CB9012070BDA1
:1024D0002068406820F0080021684860FEF704FD8D
:1024E000054607E0FEF700FD401BB0F57A7F01D9F5
:1024F0000320ECE72068406800F008000028F1D0D5
:102500000020E4E7042808D14FF0E021096941F0F8
:1025100004014FF0E022116107E04FF0E02109696A
:1025200021F004014FF0E02211617047704770B54F
:1025300004462546681EB0F1807F01D301200FE0DC
:10254000681E4FF0E02148610F214FF0FF3000F08E
:10255000ABFE00204FF0E0218861072008610020D9
:1025600070BD10B5FFF7E2FF10BD2DE9F041064642
:102570000C463568002705F5A06000EB4410806824
:1025800000F0040090B1042105F5A06000EB4410B8
:10259000816005F5A06000EB4410C06840F00201C6
:1025A00005F5A06000EB4410C16069E005F5A0608E
:1025B00000EB4410806800F0200030B1202105F5C8
:1025C000A06000EB441081605AE005F5A06000EBCC
:1025D0004410806800F0080028B305F5A06000EB07
:1025E0004410C06840F0020105F5A06000EB441003
:1025F000C160052104EB840206F1240000EBC20057
:1026000080F82510102105F5A06000EB44108160D2
:10261000082105F5A06000EB441081602146306878
:1026200003F0D0F82CE005F5A06000EB44108068C2
:1026300000F4806020B305F5A06000EB4410C06892
:1026400040F0020105F5A06000EB4410C160214696
:10265000306803F0B7F8102105F5A06000EB4410D6
:102660008160082104EB840206F1240000EBC20023
:1026700080F82510C90105F5A06000EB44108160C9
:1026800005F5A06000EB4410806800F40070B8B15C
:1026900005F5A06000EB4410C06840F0020105F5AC
:1026A000A06000EB4410C1602146306803F08AF856
:1026B0004FF4007105F5A06000EB44108160B2E1B9
:1026C00005F5A06000EB4410806800F001000028D0
:1026D0007AD0012104EB840206F1240000EBC20051
:1026E00080F82510002104EB840206F1240000EBA1
:1026F000C2000162012105F5A06000EB4410816079
:1027000004EB840106F1240000EBC100C07940B164
:1027100004EB840106F1240000EBC100C07902281B
:1027200016D105F5A06000EB4410C06840F002012E
:1027300005F5A06000EB4410C1602146306803F04D
:1027400041F8102105F5A06000EB4410816029E0FC
:1027500004EB840106F1240000EBC100C0790328DA
:1027600020D105F5A06000EB4410006840F0005156
:1027700005F5A06000EB44100160012104EB840228
:1027800006F1240000EBC20080F8241004EB840161
:1027900006F1240000EBC10090F8242021463046C9
:1027A000FEF74BFC04EB840106F1240000EBC100B2
:1027B000007E80F0010104EB840206F1240000EBAE
:1027C000C20001762FE1FFE705F5A06000EB4410A1
:1027D000806800F00200002871D005F5A06000EBD1
:1027E0004410C06820F0020105F5A06000EB441021
:1027F000C16004EB840106F1240000EBC10090F8F5
:102800002500012809D1012104EB840206F12400EE
:1028100000EBC20080F8241069E004EB840106F1AB
:10282000240000EBC10090F82500052809D10521FE
:1028300004EB840206F1240000EBC20080F82410AF
:1028400055E004EB840106F1240000EBC10090F890
:102850002500062809D004EB840106F1240000EBD2
:10286000C10090F82500082841D104EB840106F14D
:10287000240000EBC10004EB8401026A06F124008D
:1028800000EBC100006A401C04EB840306F1240144
:1028900001EBC3010862032A12D9002104EB840270
:1028A00006F1240000EBC2000162042104EB840263
:1028B00006F1240000EBC20080F8241009E029E0B2
:1028C000022104EB840206F1240000EBC20080F830
:1028D000241005F5A06000EB4410076827F080473E
:1028E00047F0004705F5A06000EB441007600221A7
:1028F00005F5A06000EB4410816004EB840106F153
:10290000240000EBC10090F8242021463046FEF759
:1029100094FB88E005F5A06000EB4410806800F0AF
:10292000800070B305F5A06000EB4410C06840F073
:10293000020105F5A06000EB4410C16004EB8401C6
:1029400006F1240000EBC100006A401C04EB840285
:1029500006F1240101EBC2010862062104EB8402A6
:1029600006F1240000EBC20080F8251021463068F3
:1029700002F028FF802105F5A06000EB4410816083
:1029800051E005F5A06000EB4410806800F01000F5
:10299000E0B304EB840106F1240000EBC100C07930
:1029A000032810D105F5A06000EB4410C06840F08A
:1029B000020105F5A06000EB4410C16021463068BB
:1029C00002F000FF1EE004EB840106F1240000EB9E
:1029D000C100C07940B104EB840106F1240000EB92
:1029E000C100C07902280DD105F5A06000EB4410AC
:1029F000076827F0804747F0004705F5A06000EB27
:102A000044100760032104EB840200E00BE006F1B0
:102A1000240000EBC20080F82510102105F5A0600D
:102A200000EB44108160BDE8F0812DE9F0410546DE
:102A30000C462E68002706F5A06000EB4410806865
:102A400000F0040090B1042106F5A06000EB4410F2
:102A5000816006F5A06000EB4410C06840F0020100
:102A600006F5A06000EB4410C16054E206F5A060DA
:102A700000EB4410806800F0200088B3202106F5A8
:102A8000A06000EB4410816004EB840105F1240098
:102A900000EBC10040790128E7D1042104EB840256
:102AA00005F1240000EBC20080F8251006F5A060B7
:102AB00000EB4410C06840F0020106F5A06000EB96
:102AC0004410C1602146286802F07CFE022104EB1C
:102AD000840205F1240000EBC20080F824101AE201
:102AE000FFE706F5A06000EB4410806800F04000AE
:102AF00038B3042104EB840205F1240000EBC2008A
:102B000080F82510002104EB840205F1240000EB7D
:102B1000C200016206F5A06000EB4410C06840F0FE
:102B2000020106F5A06000EB4410C1602146286850
:102B300002F048FE402106F5A06000EB44108160E1
:102B4000E9E106F5A06000EB4410806800F4007035
:102B5000B8B106F5A06000EB4410C06840F0020177
:102B600006F5A06000EB4410C1602146286802F021
:102B700029FE4FF4007106F5A06000EB441081605F
:102B8000C9E106F5A06000EB4410806800F0010088
:102B900030B3002104EB840205F1240000EBC200F5
:102BA000016206F5A06000EB4410C06840F002012D
:102BB00006F5A06000EB4410C1602146286802F0D1
:102BC00001FE012106F5A06000EB4410816004EBDA
:102BD000840205F1240000EBC20080F825109AE180
:102BE00006F5A06000EB4410806800F00800F8B122
:102BF000082106F5A06000EB4410816006F5A06096
:102C000000EB4410C06840F0020106F5A06000EB44
:102C10004410C1602146286802F0D4FD052104EB70
:102C2000840205F1240000EBC20080F8251072E157
:102C300006F5A06000EB4410806800F0100038B387
:102C4000002104EB840205F1240000EBC2000162C4
:102C500006F5A06000EB4410C06840F0020106F5E4
:102C6000A06000EB4410C1602146286802F0AAFD74
:102C7000032104EB840205F1240000EBC20080F87C
:102C80002510102106F5A06000EB4410816042E1A0
:102C900006F5A06000EB4410806800F08000F8B1F9
:102CA00006F5A06000EB4410C06840F0020106F594
:102CB000A06000EB4410C1602146286802F082FD4C
:102CC000062104EB840205F1240000EBC20080F829
:102CD0002510802106F5A06000EB441081601AE108
:102CE00006F5A06000EB4410806800F4806028B313
:102CF00006F5A06000EB4410C06840F0020106F544
:102D0000A06000EB4410C1602146286802F05AFD23
:102D1000102106F5A06000EB44108160890106F5E2
:102D2000A06000EB44108160082104EB840205F1EF
:102D3000240000EBC20080F82510ECE006F5A0604E
:102D400000EB4410806800F0020000289FD006F5D8
:102D5000A06000EB4410C06820F0020106F5A060FE
:102D600000EB4410C16004EB840105F1240000EB8A
:102D7000C10090F82500012822D1012104EB840232
:102D800005F1240000EBC20080F8241004EB84015C
:102D900005F1240000EBC100C07902280FD104EB3B
:102DA000840105F1240000EBC100407E80F00101A8
:102DB00004EB840205F1240000EBC200417698E0A8
:102DC00004EB840105F1240000EBC10090F825001C
:102DD000032809D1022104EB840205F1240000EB51
:102DE000C20080F8241084E004EB840105F1240083
:102DF00000EBC10090F82500042811D1022104EB5A
:102E0000840205F1240000EBC20080F824100021A8
:102E100004EB840205F1240000EBC200417168E07C
:102E200004EB840105F1240000EBC10090F82500BB
:102E3000052809D1052104EB840205F1240000EBEB
:102E4000C20080F8241054E004EB840105F1240052
:102E500000EBC10090F82500062809D004EB84019E
:102E600005F1240000EBC10090F82500082840D1AE
:102E700004EB840105F1240000EBC10004EB8401A4
:102E8000026A05F1240000EBC100006A401C04EB5B
:102E9000840305F1240101EBC3010862032A11D95F
:102EA000002104EB840205F1240000EBC200016262
:102EB000042104EB840205F1240000EBC20080F839
:102EC000241008E0022104EB840205F1240000EB49
:102ED000C20080F8241006F5A06000EB44100768DB
:102EE00027F0804747F0004706F5A06000EB44104C
:102EF0000760022106F5A06000EB4410816004EB3E
:102F0000840105F1240000EBC10090F82420214643
:102F10002846FEF792F8BDE8F0817CB504462568A6
:102F2000002001900090D5F840040190D5F84004AD
:102F30000090009820F02E000090019800F0020010
:102F4000022810D1019800F0010040B1206880698A
:102F500020F00050216888612046FDF7CBFF0098E3
:102F600040F002000090019800F00800082827D1E6
:102F7000009840F008000090019800F00400042838
:102F800012D1019800F4C020B0F5802F04D10221A5
:102F9000206802F089FE03E00121206802F084FE2F
:102FA0002046FDF7A7FF0BE0D5F8400420F02E00E7
:102FB000C5F840042068806940F0005021688861AD
:102FC000019800F02000202803D1009840F0200054
:102FD00000900098C5F840047CBD00002DE9F04742
:102FE00005462F680024A046A1462868D0F8208016
:102FF00008F00F04C8F3434AC8F30A16BAF1020FE7
:1030000009D0BAF1030F66D0BAF1050F61D0BAF159
:10301000070F5FD160E0002E5AD004EB840105F168
:10302000240000EBC100C068E8B3B2B204EB840C2A
:1030300005F1240303EBCC03D968286802F059FE9C
:1030400004EB840105F1240000EBC100C068811984
:1030500004EB840205F1240000EBC200C16004EB24
:10306000840105F1240000EBC1004069811904EBE3
:10307000840205F1240000EBC200416107F5A06065
:1030800000EB441000691649084060B107F5A060E4
:1030900000EB4410D0F8009029F0804949F0004935
:1030A00007F5A06000E013E000EB4410C0F80090CA
:1030B00004EB840105F1240000EBC100007E80F0E8
:1030C000010104EB840205F1240000EBC20001764B
:1030D00003E002E000BF00BF00BF00BFBDE8F08713
:1030E0000000F81F00BFFEE710B503490348FDF7D5
:1030F00093FB0349087010BD05000020EC87000811
:103100000400002000B585B000BF3D48806940F054
:1031100010003B4988610846806900F0100000906B
:1031200000BF00BF00BF0846806940F0040088610E
:103130000846806900F00400009000BF00BF00BF97
:103140000846806940F0400088610846806900F0C8
:103150004000009000BF00BF00BF0846806940F0FB
:10316000200088610846806900F02000009000BFC0
:1031700000BF00BF0846806940F00800886108462B
:10318000806900F00800009000BF00BF00224FF4EB
:1031900040511C48FDF7A2FE8020019000200290C3
:1031A000039001A91848FDF703FD2020019000209D
:1031B0000290039001A91548FDF7FAFC4FF4405026
:1031C000019001200290002003900220049001A9A8
:1031D0000C48FDF7EDFC10200190002002900390B8
:1031E00001A90B48FDF7E4FC40200190002002906B
:1031F000039001A90748FDF7DBFC05B000BD000006
:103200000010024000180140000801400010014079
:1032100000140140000C014010B50948094908603C
:103220004FF0FF3048604FF4807106488160FFF72F
:10323000C1F820B140F2031103A002F011FE10BD4D
:1032400000280040580000202E2E2F5372632F6D4F
:1032500061696E2E6300000010B501220549064821
:1032600000F057FC0549044802F0C4F8024802F097
:1032700009F910BD9D5400089C0200203800002070
:1032800010B5024801F0E0FF10BD00009C020020D4
:1032900000BFFEE77047000002480068C0F302204C
:1032A000704700000CED00E010B5002807DA0A07AF
:1032B000140E054A00F00F031B1FD45403E00A0745
:1032C000130E024A135410BD18ED00E000E400E0B4
:1032D00010B50248FDF7E5FF10BD000064060020B0
:1032E0007047000008B508490968C9084FF47A72A8
:1032F000B1FBF2F14143009100BF00BF00994A1EAB
:1033000000920029F9D108BD2C00002070B50446B8
:103310000025FDF7E9FD054607E0FDF7E5FD401B4B
:10332000B0F57A7F01D9032070BD2068406800F0B5
:1033300020000028F1D02068406840F0100021688B
:1033400048600020F0E770B504460025206840681A
:1033500020F0100021684860FDF7C6FD054607E033
:10336000FDF7C2FD401BB0F57A7F01D9032070BD87
:103370002068406800F020000028F1D00020F6E727
:10338000704710B5FEF7D4F8FFF7EBF810BD00005A
:1033900010B59CB005200E904FF4803010900020A6
:1033A000119001201290139000200F90022016908F
:1033B000C10317914FF4E0111891002019900EA845
:1033C000FEF754FD18B1C7211DA002F049FD0F20E2
:1033D000099002200A9000200B904FF480600C901E
:1033E00000200D90022109A8FEF7C6FB18B1D521D7
:1033F00013A002F035FD112001904FF4807002906F
:103400000020089001A8FEF7AFFA18B1DD210CA04A
:1034100002F026FDFEF782FC4FF47A71B0FBF1F466
:103420002046FFF784F80420FFF76CF801200849D4
:10343000086700221146801EFEF727F91CB010BD58
:103440002E2E2F5372632F6D61696E2E6300000064
:10345000000042421448006840F001001249086030
:1034600008464068114908400F494860084600680E
:103470000F4908400C4908600846006820F4802085
:1034800008600846406820F4FE004860084600686E
:1034900020F0A05008604FF47F0088600020C862D0
:1034A000C803044908607047001002400000FFF0A4
:1034B000FFFFF6FE08ED00E070B506460D4630460B
:1034C00000F027F904464FF6FF70844205D045F41A
:1034D000004106F55F7040F82410E0B270BD2DE9A0
:1034E000FF4107460C4615461E46002001210223D7
:1034F0000A468DE8320003903146384600F0C1FCA0
:10350000002004B0BDE8F0812DE9FF4104460D46DE
:1035100017461E46DDF8288094F81D0308B14FF0C9
:10352000000801200223002231468DE8A101204637
:1035300000F0A7FC002004B0BDE8F08170B504469F
:103540000D462946204600F0FDFA002070BD70B5FA
:1035500004460D46A078012807D1022121740121DB
:10356000617400216182A582E18200221146204619
:1035700000F016F870BD2DE9FF4107460C461546D0
:103580001E460020012103460A468DE832000390C2
:103590003146384600F075FC002004B0BDE8F081EB
:1035A0002DE9F04104460E4617460125A078012872
:1035B00002D0022819D107E0A660A7810121217657
:1035C0000220A070012511E0204600F008F9054610
:1035D0002DB90120A07000212176002504E0022DE4
:1035E00002D10120A07000BF00E000BF00BF28464C
:1035F000BDE8F0812DE9FF4104460D4617461E4601
:10360000DDF8288094F81D0308B14FF00008012070
:1036100000231A4631468DE8A101204600F031FC16
:10362000002004B0BDE8F0817FB506460C46154683
:1036300000200821CDE9000403460246CDE902102E
:103640002946304600F01DFC002004B070BD10B5C6
:1036500004462046FDF7C6F910BDF0B506460C46F7
:1036600015460022002106F232371AE002EB8200F2
:1036700000EBC20C07F10A0000EB4C014879A042B4
:1036800001D0FF2C0BD18879A84201D0FF2D06D1A3
:10369000C879984201D0FF2B01D1D0B2F0BD501CA7
:1036A00042B2022AE2DBFF20F8E702460B2909DAE0
:1036B00002F55F7030F82100C0F30E0302F55F7071
:1036C00040F82130002070472DE9F04104460E46B5
:1036D00015461F46DDF81880A078012812D146F063
:1036E0008001217406216174658205F47F40B0F584
:1036F000407F03D140F20941A18201E00021A18273
:10370000A4F81680424639462046FFF749FFBDE837
:10371000F0810246002100BF0AE002F55F7030F838
:10372000210000F4004008B908467047481CC1B2A7
:103730000B29F2DB4FF6FF70F7E710B502460B8856
:10374000147823440B801378981810BDF8B50446FC
:103750000D4604F11C0633464FF40072002120464A
:103760000095FFF7B1FF070005D12A46314604F264
:10377000323001F092FC3846F8BDF8B504460D46EB
:1037800004F58E734FF48072002120460095FFF7F8
:103790009BFF060006D12A4604F58E7104F5487099
:1037A00001F0E8FC3046F8BD2DE9F84304460E462A
:1037B00017461D4646F4407204F58E7300212046DC
:1037C0000095FFF781FF5FEA000805D12A463946D8
:1037D00004F58E7001F01DFD4046BDE8F883F8B594
:1037E000044601270025207E0C2872D2DFE800F075
:1037F000D2060F303C4E5C788498A6BB627904F107
:1038000010012046FFF710FF02212176C3E0617905
:10381000204600F03AFA0546012D14D1207C00F034
:103820008006E08A38B1802E02D1032121760EE095
:10383000052121760BE0802E02D10921217606E0B8
:103840000721217603E0042D01D10B212176A2E08E
:10385000D4F8B803E0812379A2892046A168FFF754
:103860008AFE0421217696E02179204600F00DFAA7
:103870000546012D01D109212176052D01D103270E
:1038800003E0042D01D10B21217684E0012000907A
:103890006379A2892046A168FFF7ACFED4F8B8038B
:1038A000E0810621217676E06179204600F0EDF98D
:1038B0000546012D02D10721217610E0052D03D107
:1038C0000C21217603270AE0022D03D10521217660
:1038D00005E05FE0042D02D10B21217602275AE09A
:1038E0002379002211462046FFF745FED4F8B8039D
:1038F000E081082121764EE02179204600F0C5F9CB
:103900000546012D03D10D212176002707E0042D66
:1039100002D10B21217602E0052D00D103273AE0E8
:10392000012000906379002211462046FFF762FED5
:10393000D4F8B803E0810A2121762CE06179204691
:1039400000F0A3F90546012D03D100270D212176B2
:1039500008E0022D02D10921217603E0042D01D1D6
:103960000B21217617E0607E401CC1B261760229EE
:1039700007DC204600F067FA012121760120A070C3
:1039800007E006212046D4F8C42390470021617641
:10399000022700E000BF00BF3846F8BD3EB5044630
:1039A0000125607808287CD2DFE800F0042A325B29
:1039B000636C7F9108212046FFF7DFFEF8B994F889
:1039C0002713A17101206070A079002294F81D13C3
:1039D000CDE90012029094F81C3321798022204610
:1039E00001F046FBA079002294F81D13CDE90012E6
:1039F000029094F81C336179204601F039FB77E09E
:103A000012212046FFF7B9FE08B9022060706FE06E
:103A10000121204601F00EFD10BB0220FFF717FE2A
:103A2000012184F81C1303206070A079002294F80F
:103A30001D13CDE90012029094F81C3321798022E5
:103A4000204601F015FBA079002294F81D13CDE962
:103A50000012029094F81C336179204601F008FBB3
:103A600046E009212046FFF771FE08B90420607086
:103A70003EE0B4F834132046FFF768FE08B905208D
:103A8000607035E094F82E0360B194F82E13FF2394
:103A900004F58E722046FFF787FE28B90620607075
:103AA00002E024E00620607022E094F82F0358B171
:103AB00094F82F13FF2304F58E722046FFF774FE4F
:103AC00020B90720607001E00720607010E094F8D2
:103AD000300350B194F83013FF2304F58E72204662
:103AE000FFF762FE10B9002500E0002500E000BFEE
:103AF00000BF28463EBD10B5044620780A2807D1ED
:103B0000D4F8740320B1D4F874038169204688473F
:103B100010BD70B504460D4616460CB9022070BDA6
:103B200084F8BC630020C4F87403C4F8780320460A
:103B3000FCF748FE0DB1C4F8C453204600F0BAF8B3
:103B40000020ECE72DE9F04104460D460026002751
:103B50002946D4F8C003FDF7FAF9064636B1012E1E
:103B600006D0022E06D0032E08D105E0002707E07C
:103B7000022705E0012703E0022701E0022700BF3A
:103B800000BF3846BDE8F08110B50446207858B92A
:103B9000012184F81E13D4F8C40350B10421204637
:103BA000D4F8C423904704E02078012801D10220F2
:103BB0002070002010BD10B50446204600F043F9E7
:103BC00021792046FFF771FD61792046FFF76DFDF1
:103BD000002184F81E13D4F8C40320B10521204627
:103BE000D4F8C4239047204600F00FF9032020703A
:103BF000002010BD70B504460D4694F8BC030128A2
:103C000000D100BFC820FCF7EDFE002070BD70B5EC
:103C100004460D462946D4F8C003FDF78FF970BD60
:103C200070B504460125D4F8C003FDF777F920B13B
:103C3000012804D0022806D103E0002505E0012573
:103C400003E0022501E0012500BF00BF284670BD4A
:103C500030B503460020D3F8C02301EB810502F103
:103C6000240404EBC504E4783CB101EB810502F1C6
:103C7000240404EBC504207E06E001EB810502F17B
:103C8000240404EBC504607E30BD70B504460D46C7
:103C90002946D4F8C003FDF747F970BD10B50446B6
:103CA000D4F8B803401CC4F8B8032046FFF723FF3C
:103CB00010BD000070B5044694F8BC0301281ED165
:103CC0001048C0F88042C4F8C0034FF0A0400D492E
:103CD000086008210B4881600321C1600021416117
:103CE000FDF792FB18B1C32107A002F0B9F805480F
:103CF000FDF70EF905462946204600F066F800203B
:103D000070BD0000640600202E2E2F5372632F75A5
:103D10007362685F636F6E662E6300002DE9FF5F5C
:103D200004460D4616461F46DDE90F9ADDF8388039
:103D30004FF0000B002003908DE800073B46324611
:103D40002946D4F8C003FDF71BF98346BBF1000FE9
:103D500009D0BBF1010F09D0BBF1020F09D0BBF1B3
:103D6000030F0CD108E0002003900BE00220039029
:103D700008E00120039005E00220039002E0022009
:103D8000039000BF00BF039804B0BDE8F09F70B57A
:103D9000044600250026D4F8C003FDF789FB05463C
:103DA00035B1012D06D0022D06D0032D08D105E036
:103DB000002607E0022605E0012603E0022601E0D6
:103DC000022600BF00BF304670BDC0F8B813704770
:103DD00030B50446D4F8C03301EB810503F124006B
:103DE00000EBC500C07838B101EB810503F1240078
:103DF00000EBC500027606E001EB810503F124002B
:103E000000EBC5004276002030BD70B504460025A9
:103E10000026D4F8C003FDF758FB054635B1012D47
:103E200006D0022D06D0032D08D105E0002607E0BC
:103E3000022605E0012603E0022601E0022600BF7B
:103E400000BF304670BD70B5044600250026D4F88A
:103E5000C003FDF755FB054635B1012D06D0022DF7
:103E600006D0032D08D105E0002607E0022605E074
:103E7000012603E0022601E0022600BF00BF304613
:103E800070BD2DE9F04F85B004460D4616461F461D
:103E9000DDE9109ADDF83C804FF0000B0020049023
:103EA0000E988DE801073B4632462946D4F8C003F8
:103EB000FDF7C4F88346BBF1000F09D0BBF1010F39
:103EC00009D0BBF1020F09D0BBF1030F0CD108E000
:103ED000002004900BE00220049008E001200490F0
:103EE00005E00220049002E00220049000BF00BF21
:103EF000049805B0BDE8F08F2DE9F04104468846EE
:103F000015460227D4F87403C66915B1012D0CD1EA
:103F100005E0F1792046FFF71AFB074606E0B17984
:103F20002046FFF714FB074600E000BF00BF3846FD
:103F3000BDE8F0810246D2F87403C169054B4B65B8
:103F4000054B8B65012381F8503081F852300020F9
:103F50007047000055534243504030202DE9F84F40
:103F6000074688464FF001090126B2460025D7F8DA
:103F70007403C469AB4694F850000C2874D2DFE88F
:103F800000F07306153C477481B5C0DFF2F084F889
:103F90006180022184F850100120009063791F2273
:103FA00004F154013846FFF7AFFA0AE16179384667
:103FB000FFF76BFE0546012D13D1E06D68B194F853
:103FC000600000F08000802803D1032184F85010A5
:103FD00012E0052184F850100EE0072184F85010FB
:103FE0000AE0022D03D1012184F8501004E0052DD0
:103FF00002D10A2184F85010E3E0237962898C20F1
:1040000001593846FFF76BFA042184F85010D8E0C4
:1040100021793846FFF739FE0546012D1ED1618909
:10402000E06D88420AD98C200059618901448C20B6
:1040300001516189E06D411AE16501E00021E1650E
:10404000E06D38B1237962898C2001593846FFF739
:1040500046FA08E0072184F8501004E0052D02D14B
:10406000092184F85010ACE0AAE0012000906379A7
:1040700022898C2001593846FFF746FA062184F838
:1040800050109EE061793846FFF7FFFD0546012D8F
:1040900020D12189E06D88420AD98C2000592189DC
:1040A00001448C2001512189E06D411AE16501E054
:1040B0000021E165E06D48B101200090637922891B
:1040C0008C2001593846FFF71FFA0EE0072184F8CB
:1040D00050100AE0022D03D1052184F8501004E0AD
:1040E000052D02D10A2184F850106AE023790D22AF
:1040F00004F178013846FFF7F2F9082184F85010EE
:104100005FE021793846FFF7C0FD0546012D11D14A
:10411000012184F8501084F85210384600F0BEF89F
:104120008246BAF1000F02D14FF0000907E04FF0CC
:10413000020904E0052D02D1092184F8501040E065
:10414000002241463846FFF7D7FE06461EB9072132
:1041500084F8501004E0042E02D10B2184F8501092
:104160002FE022E0FFE7012241463846FFF7C4FE78
:104170000646A6B961793846FFF76AFD8346CBF15A
:104180000100C2B261793846FFF722FE2179002290
:104190003846FFF71DFE092184F8501004E0042E74
:1041A00002D10B2184F850100BE0384600F01FF8C4
:1041B0008146B9F1000F02D1012184F8501000E0CE
:1041C00000BF00BF4846BDE8F88F70B504460D46F5
:1041D000A1212174FE21617400216182A18201214B
:1041E000E182012229462046FFF7DAF970BD10B5B9
:1041F000044621212174FF21617400216182A18282
:10420000E182002211462046FFF7CAF910BD2DE9D0
:10421000F0410746D7F87403C4690126A07B20B19A
:10422000022803D0032834D12BE000BF21463846B2
:10423000FFF7CBFF0646032E02D1002020600026A8
:10424000F6B92078401C2060002516E0022105EB1D
:10425000850000EBC50204F1900000EB8200817044
:10426000002105EB850000EBC50204F1900000EB96
:10427000820080F83110681CC5B22068A842E5D8D9
:1042800008E000213846FFF762F908B9E07BA07327
:1042900000E000BF00BF3046BDE8F08170B50546C4
:1042A000D5F87403C469012621792846FFF7AFFCCD
:1042B0000D2801D0022619E00D49A06F884214D1C3
:1042C000E16FA06D814211D194F8840008B90026F5
:1042D0000CE094F88400012801D1012606E094F84E
:1042E0008400022802D1022600E00226304670BD7A
:1042F000555342532DE9F04104460D461646D4F875
:104300007403C76920780A280ED105EB850000EBFD
:10431000C50207F1900000EB820134223046FCF721
:10432000DAF80020BDE8F0810220FBE770B5054611
:10433000D5F87403C469607948B161792846FFF7FC
:10434000FDF861792846FFF7B0F900206071207907
:1043500048B121792846FFF7F1F821792846FFF77F
:10436000A4F900202071D5F87403C06940B1D5F8D4
:104370007413C869FBF78DFF0020D5F87413C8616A
:10438000002070BDFEB5044600260227D4F8740351
:104390000179502306222046FFF75FF90646FF2EDB
:1043A00000D1CCE03146204601F039F84FF480705E
:1043B000FBF740FFD4F87413C861D4F87403C569DF
:1043C00094F81F0300EB800101EBC00104F54F706E
:1043D00000EB4100007B00F08000C0B194F81F03A7
:1043E00000EB800101EBC00104F54F7000EB4100D0
:1043F000007BE87194F81F0300EB800101EBC00122
:1044000004F54F7000EB4100C089688117E094F813
:104410001F0300EB800101EBC00104F54F7000EBBE
:104420004100007BA87194F81F0300EB800101EBB1
:10443000C00104F54F7000EB4100C089288194F859
:104440001F0300EB800101EBC00104F54F7000EB8E
:104450004100007D00F08000C0B194F81F0300EB24
:10446000800101EBC00104F54F7000EB4100007DBD
:10447000E87194F81F0300EB800101EBC00104F523
:104480004F7000EB4100C08A688117E094F81F0369
:1044900000EB800101EBC00104F54F7000EB41001F
:1044A000007DA87194F81F0300EB800101EBC001AF
:1044B00004F54F7000EB4100C08A28810020A5F868
:1044C000F800A5F8FA0028736873A873A979204644
:1044D000FEF7F2FF6871E9792046FEF7EDFF2871DB
:1044E0002046FFF727FD682105F19000FCF747F80B
:1044F0002889022294F81D13CDE90012029094F845
:104500001C33AA796979204600F0B2FD688902223D
:1045100094F81D13CDE90012029094F81C33EA7947
:104520002979204600F0A4FD297900222046FFF7D2
:104530004FFC697900222046FFF74AFC00273846E5
:10454000FEBD2DE9F0410646D6F87403C4694FF06C
:10455000010801250127207B10B101287AD121E231
:10456000B4F8F8002168884275D20121B4F8F80047
:1045700000EB800202EBC00204F1900000EB82002D
:104580004170B4F8F80000EB800101EBC00104F1C8
:10459000900010F8210009287DD2DFE800F0057CAA
:1045A0005DFE15FD7C7CFC000421B4F8F80000EBF6
:1045B000800202EBC00204F1900000F82210D6F84D
:1045C000B803C4F8FC0000BFB4F8F80000EB8003A7
:1045D00003EBC00304F1900000EB830000F10F0235
:1045E00094F8F810304600F0E1FA054655B902217A
:1045F000B4F8F80000EB800202EBC00204F1900076
:1046000000F82210022D0BD10521B4F8F80000EBC0
:10461000800202EBC00204F1900000F8221018E0C2
:10462000042D16D10121B4F8F80000EB800202EB52
:10463000C00204F1900000F822100221B4F8F80042
:1046400000EB800202EBC00204F1900000EB82005C
:1046500041709BE1A9E19AE194F8F810304600F02E
:104660001CFC0746EFBBB4F8F80000EB800101EB3F
:10467000C00104F1900000EB8100807878B1012145
:10468000B4F8F80000EB800202EBC00204F19000E5
:1046900000EB820000E078E180F831100CE00021AE
:1046A000B4F8F80000EB800202EBC00204F19000C5
:1046B00000EB820080F831100321B4F8F80000EB21
:1046C000800202EBC00204F1900000F822100021E9
:1046D000B4F8F80000EB800202EBC00204F1900095
:1046E00000E00DE000EB82004170B4F8F80000EB50
:1046F000800202EBC00204F1900000EB82008170A6
:10470000022F4FD1B4F8F80000EB800101EBC0019B
:1047100004F1900000EB8100807802280DD0012187
:10472000B4F8F80000EB800202EBC00204F1900044
:1047300000EB820080F831100CE00021B4F8F800A2
:1047400000EB800202EBC00204F1900000EB82005B
:1047500080F831100521B4F8F80000EB800202EB7C
:10476000C00204F1900000F822100121B4F8F80012
:1047700000EB800202EBC00204F1900000EB82002B
:1047800041700221B4F8F80000EB800202EBC00295
:1047900004F1900002E0F2E075E01DE000EB820021
:1047A000817018E0042F16D10121B4F8F80000EB55
:1047B000800202EBC00204F1900000F822100221F6
:1047C000B4F8F80000EB800202EBC00204F19000A4
:1047D00000EB82004170D9E0B4F8F80000EB8003F0
:1047E00003EBC00304F1900000EB8300021D94F87A
:1047F000F810304600F0A4FA0546E5B90121B4F8F6
:10480000F80000EB800202EBC00204F1900000F817
:1048100022100021B4F8F80000EB800202EBC00285
:1048200004F1900000EB82004170B4F8F800401CE5
:10483000A4F8F80026E0022D0BD10521B4F8F80009
:1048400000EB800202EBC00204F1900000F822109D
:1048500018E0042D16D10121B4F8F80000EB800215
:1048600002EBC00204F1900000F822100221B4F81B
:10487000F80000EB800202EBC00204F1900000EBB4
:104880008200417082E0B4F8F80000EB800303EB93
:10489000C00304F1900000EB830000F10C0294F8D7
:1048A000F810304600F0A0FA0546EDBBB4F8F80069
:1048B00000EB800101EBC00104F1900000EB8100EE
:1048C000007B06280CD0B4F8F80000EB800101EB67
:1048D000C00104F1900000EB8100007B022814D19C
:1048E000D6F8B803D4F8FC10401A42F2107188428E
:1048F0000BD20221B4F8F80000EB800202EBC002F8
:1049000004F1900000F8221040E00121B4F8F80012
:1049100000EB800202EBC00204F1900000F82210CC
:10492000B4F8F800401C00E001E0A4F8F800022D03
:104930000BD10821B4F8F80000EB800202EBC002B2
:1049400004F1900000F8221018E0042D16D1012186
:10495000B4F8F80000EB800202EBC00204F1900012
:1049600000F822100221B4F8F80000EB800202EBFC
:10497000C00204F1900000EB8200417006E0B4F840
:10498000F800401CA4F8F80000E000BF09E0002097
:10499000A4F8F8000120207302213046D6F8C42381
:1049A000904703E04FF0000800E000BF00BF404622
:1049B000BDE8F0812DE9F84380460C46D8F8740331
:1049C000C5690127012604EB840000EBC40105F151
:1049D000900010F82100052860D0062802D0072892
:1049E0007DD12DE00020034602462146009040463E
:1049F00000F055F9064656B9012104EB840000EB9E
:104A0000C40205F1900000F82210002717E0022EE2
:104A100009D1052104EB840000EBC40205F19000EC
:104A200000F822100BE0042E09D1082104EB8400C9
:104A300000EBC40205F1900000F82210022763E0A9
:104A400000200346024621460090404600F056FAF8
:104A5000064656B9012104EB840000EBC40205F1BF
:104A6000900000F82210002717E0022E09D105213E
:104A700004EB840000EBC40205F1900000F8221062
:104A80000BE0042E09D1082104EB840000EBC402E2
:104A900005F1900000F82210022735E004EB8400B5
:104AA00000EBC40105F1900000EB810000F10C0265
:104AB0002146404600F098F90646AEB9012104EBC4
:104AC000840000EBC40205F1900000F822100221DE
:104AD00004EB840000EBC40205F1900000E012E05A
:104AE00000EB820041700227022E0BD0042E09D168
:104AF000082104EB840000EBC40205F1900000F8EB
:104B00002210022700E000BF00BF3846BDE8F8834E
:104B10002DE9F84F04460E4691469A460A9FD4F86E
:104B20007403C56994F81E0360B120780A2809D17E
:104B300006EB860000EBC60105F1900010F821009D
:104B4000012802D00220BDE8F88F06202873062134
:104B500006EB860000EBC60205F1900000F822107B
:104B6000A5F8FA6053464A4631462046009700F0C1
:104B700096F8D4F8B8830FE0D4F8B803A0EB080196
:104B800042F210707843814202D894F81E0318B99B
:104B9000012028730220D6E731462046FFF70AFF9E
:104BA0000128E9D0012028730020CCE72DE9F0414D
:104BB00006460F4615464FF00208D6F87403C4693E
:104BC00094F85200012802D0022863D12FE024215A
:104BD000E165802184F860100A2184F862100021C8
:104BE00004F10F00C4F86310C4F86710A4F86B1048
:104BF000122184F863107807010E84F864100021F4
:104C000084F8651084F86610242184F86710002168
:104C100084F86810012184F85010022184F85210A1
:104C200004F110008C2108514FF0010833E039469F
:104C30003046FFF793F98046B8F1000F29D12221C1
:104C40002846FBF77AFC8C200059007800F01F0002
:104C500068708C2000590078401128708C20005911
:104C60004078C009A8708C2000598168C5F80310ED
:104C7000C068C5F807008C20005900F1100110220F
:104C800005F10C00FBF7E2FB8C200059006AC5F827
:104C90001D0000E000BF00BF4046BDE8F0812DE9E7
:104CA000FF4105460F461E464FF00208D5F8740333
:104CB000C46994F85200012802D002283AD133E0A6
:104CC0000A984102E165802184F860100A2184F885
:104CD0006210102104F16300FBF72FFC282184F8F7
:104CE00063109DF80B1084F865109DF80A1084F885
:104CF00066109DF8091084F867109DF8081084F874
:104D000068109DF8291084F86A109DF8281084F81E
:104D10006B10012184F85010022184F852108C206D
:104D200006514FF0010806E039462846FFF716F90C
:104D3000804600E000BF00BF404604B0BDE8F081FF
:104D40002DE9F0410646884615460127D6F874033A
:104D5000C46994F85200012802D002283FD11BE018
:104D60000821E165802184F860100A2184F862102E
:104D7000102104F16300FBF7E0FB252184F86310A8
:104D8000012184F85010022184F8521004F110001F
:104D90008C210851012723E041463046FFF7DEF819
:104DA0000746DFB98C200059C1788C2000598078E3
:104DB00041EA00218C200059407841EA00418C20D2
:104DC0000059007841EA006028608C200059C179C0
:104DD0008C200059807941EA0020A88000E000BFC3
:104DE00000BF3846BDE8F0812DE9F04106460F4688
:104DF00015464FF00208D6F87403C46994F85200BF
:104E0000012802D0022843D12BE00E21E165802148
:104E100084F860100A2184F86210102104F1630004
:104E2000FBF78BFB032184F863107807010E84F8ED
:104E30006410002184F8651084F866100E2184F84F
:104E40006710002184F86810012184F850100221B5
:104E500084F8521004F110008C2108514FF0010821
:104E600017E039463046FFF779F88046B8F1000F71
:104E70000DD18C200059807800F00F0028708C2014
:104E80000059007B68708C200059407BA87000E0BE
:104E900000BF00BF4046BDE8F0812DE9F041054666
:104EA0000E460227D5F87403C46994F8520001280D
:104EB00002D002281DD116E00021E16584F86010BF
:104EC0000A2184F86210102104F16300FBF735FB1E
:104ED000002184F86310012184F85010022184F825
:104EE0005210012706E031462846FFF737F80746FB
:104EF00000E000BF00BF3846BDE8F0812DE9FF416A
:104F000005460F461E464FF00208D5F87403C469E3
:104F100094F85200012802D002283AD133E00A98CE
:104F20004102E165002184F860100A2184F86210D2
:104F3000102104F16300FBF700FB2A2184F86310C1
:104F40009DF80B1084F865109DF80A1084F866101F
:104F50009DF8091084F867109DF8081084F868100F
:104F60009DF8291084F86A109DF8281084F86B10B9
:104F7000012184F85010022184F852108C2006512F
:104F80004FF0010806E039462846FEF7E7FF804665
:104F900000E000BF00BF404604B0BDE8F08101461C
:104FA0000020704710B50246D2F87403C369107828
:104FB0000A280DD101EB810000EBC10403F1900040
:104FC00000EB8400407808B9012010BD0020FCE708
:104FD0000020FAE72DE9F84F04460E4691469A461E
:104FE0000A9FD4F87403C56994F81E0360B1207851
:104FF0000A2809D106EB860000EBC60105F19000F6
:1050000010F82100012802D00220BDE8F88F072007
:105010002873072106EB860000EBC60205F190001D
:1050200000F82210A5F8FA6053464A463146204659
:105030000097FFF763FFD4F8B8830FE0D4F8B80304
:10504000A0EB080142F210707843814202D894F834
:105050001E0318B9012028730220D6E731462046E6
:10506000FFF7A8FC0128E9D0012028730020CCE735
:105070002DE9FE4F04460D4616461F46DDE90D9A02
:10508000DDF830803B463246294620468DE8000751
:10509000FEF744FE0020BDE8FE8F2DE9F84F0446E0
:1050A0000E46934635464FF00008C14600BF3078A3
:1050B000207070786070B178F07801EB002060802B
:1050C0003079207170796071B079A071F079E071F8
:1050D000307A2072BBF1090F4ADD092000900027C9
:1050E0003EE069462846FEF728FB05466878042816
:1050F00036D108EB880000EBC80104F10A0000EB90
:1051000041072946384600F071F84FF00009CA46B9
:105110001AE069462846FEF710FB05466878052820
:1051200012D108EB880000EBC80104F10A0000EB83
:1051300041000A3000EBC90A2946504600F046F803
:1051400009F101004FFA80F93879484504DD60889B
:10515000BDF800108842DCDC08F101004FFA80F84D
:10516000B8F1020F04DA6088BDF800108842B8DC9C
:10517000BDE8F88F10B50B7803704B7843708C78CE
:10518000CB7804EB032343800B7903714B79437194
:105190008B798371CB79C371082A16DD0C7A4B7A2F
:1051A00004EB032303818C7ACB7A04EB0323438142
:1051B0000C7B4B7B04EB032383818B7B8373CB7B47
:1051C000C3730B7C03744B7C437410BD0A7802706C
:1051D0004A7842708A788270CA78C2700B794A79AC
:1051E00003EB022282808A79827170470A7802700A
:1051F0004A7842708A788270CA78C2700A790271DD
:105200004A7942718A798271CA79C2710A7A0272C4
:10521000704730B513464578032D14D10578AD1E7F
:105220009D4202DC0578AD1E00E01D46ACB2801C3C
:10523000002204E0855C0D70491C951CAAB2A242B4
:10524000F8DB00250D7030BD7FB5044602200390C9
:10525000002520780D2872D2DFE800F0071314B77C
:10526000C6449C556069AEC6C70094F81E0338B1A9
:1052700001202070C820FEF7EAF92046FEF787FDDE
:10528000B4E0B3E06420FEF7E2F92046FEF7C8FC84
:1052900084F81D030520207000212046FEF70CF93C
:1052A000607180212046FEF707F92071A079002265
:1052B00094F81D13CDE90012029094F81C33217963
:1052C00080222046FFF7D4FEA079002294F81D1317
:1052D000CDE90012029094F81C3361792046FFF763
:1052E000C7FE83E02046FEF759FB58B9002184F839
:1052F0001F1394F83103012802D10820207001E027
:105300000720207072E0D4F8C40330B10121204698
:10531000D4F8C42390470820207067E094F837132E
:10532000204600F09BF808B9092020705EE0D4F810
:10533000780340B30020C4F87403002511E053E063
:1053400004F55C7050F82500017994F8410381421E
:1053500005D104F55C7050F82500C4F87403681C8E
:10536000C5B2012DECDBD4F8740380B1D4F874031A
:1053700081682046884738B90620207003212046DE
:10538000D4F8C423904704E00C20207001E00C20E6
:1053900020702BE0D4F8740358B1D4F87403016979
:1053A0002046884703909DF80C0020B90A20207001
:1053B00001E00C20207019E0D4F8740320B1D4F877
:1053C000740341692046884710E02046FBF7FAF94C
:1053D000D4F8740338B1D4F87403C1682046884700
:1053E0000020C4F8740301E000BF00BF00BF00202C
:1053F00004B070BD10B50246002071B1D2F8783308
:105400004BB9D2F87843631CC2F8783302F55C7369
:1054100043F8241002E0022000E0022010BD024602
:10542000002092F836338B4202DD82F81F1300E031
:105430000220704770B504460D46A078012807D1B8
:10544000002121740521617465820021A182E1821D
:10545000002211462046FEF7A3F870BD70B5044641
:105460000D46A078012807D100212174092161741B
:1054700065820021A182E182002211462046FEF7CA
:105480008FF870BD10B504462046FEF7BEFC012122
:105490002046FEF7AFFB002010BD0000012906D01A
:1054A000022909D004290BD005290DD100E00CE018
:1054B0000322074B1A7008E00222054B1A7004E021
:1054C0000122034B1A7000E000BF00BF70470000CC
:1054D000090000200146002070470000F0B58DB0A3
:1054E00005460E461446012736B1012E06D0022E7F
:1054F00010D0032E28D11AE0002727E06A4629465B
:105500001448FEF7F7FE18B901982060002700E064
:1055100001271BE06A4629460E48FEF7EBFE20B93C
:10552000BDF808002060002700E001270EE06A4671
:1055300029460848FEF7DEFE20B9BDF808002060C5
:10554000002700E0012701E0042700BF00BF384624
:105550000DB0F0BD9C0200202DE9F0438FB0054650
:105560000C4617461E464FF001084FF0000904F0A4
:10557000030018B140460FB0BDE8F08323463A4619
:10558000294612480096FFF7C3FA8146B9F1000F89
:1055900002D14FF0000816E002AA29460B48FEF798
:1055A000A9FE9DF81500042804D0282804D03A2824
:1055B00005D100E000BF00BF4FF0030802E04FF04C
:1055C000010800BF00BF4046D5E700009C02002054
:1055D00070B50446012521460448FFF7E3FC08B1F5
:1055E000002500E00125284670BD00009C02002037
:1055F0002DE9F0438FB005460C4617461E464FF086
:1056000001084FF0000904F0030018B140460FB044
:10561000BDE8F08323463A46294614480096FFF732
:10562000D9FC8146B9F1000F02D14FF000081BE010
:1056300002AA29460D48FEF75DFE9DF815000428D4
:1056400009D0272804D0282807D03A2808D103E019
:105650004FF0020807E000BF00BF4FF0030802E070
:105660004FF0010800BF00BF4046D0E79C02002079
:1056700010B50446E06840F04000E060204600F0CD
:1056800005F84FF48030A063002010BD01460022D1
:1056900000BF501C02460F4B984201D903207047AF
:1056A000086900F000400028F3D00022086940F0AB
:1056B0000100086100BF501C0246064B984201D908
:1056C0000320ECE7086900F001000028F3D100BFD7
:1056D000E5E70000400D03000146886820F0010066
:1056E00088600020704708B5024600200090D2F87C
:1056F00040040090009820F02E000090009800F4E4
:10570000805030B9012904D1009840F48050C2F88B
:105710004004009800F48050B0F5805F05D121B9B5
:10572000009820F48050C2F84004002008BD0146D3
:10573000886840F001008860002070470146002220
:105740001020086100BF501C0246064B984201D948
:1057500003207047086900F010001028F3D00020E3
:10576000F7E70000400D030010B50246002320209B
:1057700040EA8110106100BF581C0346054CA0424E
:1057800001D9032010BD106900F020002028F3D0BB
:105790000020F7E7400D030001464FF481604058B8
:1057A00080B2704708B5014600200090D1F840044F
:1057B00000900098C0F3414008BD0146486900F0E0
:1057C0000100704710B50246002302F5A06000EB0F
:1057D00041100068C0F3814040B102F5A06000EBC9
:1057E00041100068C0F38140022852D102F5A06048
:1057F00000EB4110006840F0804402F5A06000EB2F
:1058000041100460D06A80B2A8BB02F5A06000EB32
:105810004110006820F0004402F5A06000EB411048
:10582000046002F5A06000EB4110006840F0004405
:1058300002F5A06000EB4110046002F5A06000EBEF
:105840004110006820F4004402F5A06000EB411014
:10585000046000BF581C0346B0F57A7F00D909E008
:1058600002F5A06000EB4110006800F00040B0F1CC
:10587000004FEFD061E0FFE702F5A06000EB4110C0
:10588000006840F0004402F5A06000EB41100460A5
:1058900053E002F5A06000EB4110006840F0804446
:1058A00002F5A06000EB411004604FF48260805864
:1058B00080B2A8BB02F5A06000EB4110006820F0A8
:1058C000004402F5A06000EB4110046002F5A06006
:1058D00000EB4110006840F0004402F5A06000EBCE
:1058E0004110046002F5A06000EB4110006820F454
:1058F000004402F5A06000EB4110046000BF581C9A
:105900000346B0F57A7F00D909E002F5A06000EB0C
:105910004110006800F00040B0F1004FEFD00CE003
:10592000FFE702F5A06000EB4110006840F0004482
:1059300002F5A06000EB41100460002010BD2DE9CD
:10594000F0410446DDE90757069E4FF0FF3C04F5A1
:10595000A06000EB4110C0F808C035B1012D37D070
:10596000022D03D0032D4CD119E000BF40F29D4C15
:1059700004F5A06000EB4110C0F80CC002F08000FC
:1059800060B104F5A06000EB4110C06840F4807C79
:1059900004F5A06000EB4110C0F80CC031E040F20B
:1059A0009D6C04F5A06000EB4110C0F80CC002F043
:1059B000800060B104F5A06000EB4110C06840F4C5
:1059C000807C04F5A06000EB4110C0F80CC018E02A
:1059D00040F2252C04F5A06000EB4110C0F80CC08B
:1059E00002F0800060B104F5A06000EB4110C068D7
:1059F00040F4C07C04F5A06000EB4110C0F80CC07E
:105A000000BF00BF4FF4836000594FF0010C0CFA47
:105A100001FC40EA0C00C4F81804A06940F00070D2
:105A2000A0614FF0FE5000EA83504FF4F04C0CEAB6
:105A3000C22C40EA0C00C2F3C01C4FF4004808EA34
:105A4000CC3C40EA0C00022E02D14FF0010C01E0E8
:105A50004FF0000C4FF4003808EA4C4C40EA0C00C0
:105A60004FF4402C0CEA854C40EA0C00C7F30A0CBA
:105A700040EA0C0004F5A06C0CEB411CCCF80000D3
:105A8000032D0CD104F5A06000EB4110006840F03C
:105A9000005C04F5A06000EB4110C0F800C00020DD
:105AA000BDE8F081014640F21440405880B2704792
:105AB0002DE9F04705460C464FF0000AD146002676
:105AC0004FF48077B046206968B121892069084485
:105AD000401EB0FBF1F086B2BE4205DD3E46208995
